:100000000C9482010C94AA010C94AA010C94AA01EC
:100010000C94AA010C94AA010C94AA010C94AA01B4
:100020000C94AA010C94AA010C94AA010C94B00D92
:100030000C94AA010C94AA010C94AA010C94AA0194
:100040000C94E10D0C94AA010C94AA010C94AA0141
:100050000C94AA010C94AA010C94AA010C94AA0174
:100060000C94AA010C94AA01280601C0100080007B
:100070002002001080000000408000002900800065
:10008000C10C00FC0000401008083854AAD6AA7C15
:1000900010000808386CBEFADE7C10000808A0408A
:1000A00005020028100008080018243C3C3C3C18BD
:1000B00003053F213F1208120A100A0E1C0E0C1EE7
:1000C0000C141A14161F161E131E1E1B1E1E1F1E96
:1000D0003F213F3A2F3A173D173F213F181F020497
:1000E0000A041F0E04040E1F0A1F0A0E0E1F04111D
:1000F0000E2E252E2F2A2E262929021F02081F0820
:10010000150E04040E150E15151B151B040604040C
:100110000C040000000017000300031F0A1F16371D
:100120001A1904130A153A000300000E11110E00EB
:100130000A040A040E04003000040404001000182D
:1001400004031F111F121F101D151711151F07047F
:100150001F17151D1F151D01011F1F151F17151F27
:10016000000A00003200040A110A0A0A110A0401F6
:1001700015020E11171E051E1F150A0E110A1F115A
:100180000E1F15111F05010E111D1F041F111F1138
:1001900008100F1F041B1F10101F061F1E040F0E38
:1001A000110E1F09060E112E1F051A121509011F27
:1001B000011F101F0F180F1F0C1F1B041B031C0314
:1001C000191513001F11030418111F00020102204A
:1001D00020200001020C121E1F120C0C12120C1215
:1001E0001F0C1A14041E05242A1E1F021C141D10A5
:1001F00020201D1F0814111F101E041E1E021C0C9F
:10020000120C3E0A040C123E1E040214160A020FBF
:10021000120E101E0E100E1E081E120C1226281E84
:10022000322A26041E21001F00211E040102013F64
:10023000213F6D560A0A504C454153450A545552C8
:100240004E204F4646004C4F572042415454455291
:10025000590A0005008930080238024978681400FC
:1002600000F6E8DBCFC3B8AEA49B928A827B746EA3
:1002700068625C57524E4945413E3A3734312E2C24
:1002800029272523211F1D1C1A19171615141312AF
:1002900011100F0E0D0C0B0A09080706A402A0028C
:1002A0000101FF030101F703000000080002010043
:1002B0000003040700000000000000000102040821
:1002C00010204080010204081020010204081020C0
:1002D00004040404040404040202020202020303EC
:1002E0000303030300000000230026002900000090
:1002F0000000250028002B0000000000240027003B
:100300002A00420211241FBECFEFD8E0DEBFCDBFCE
:1003100011E0A0E0B1E0E4EFF5E202C005900D923B
:10032000AC31B107D9F723E0ACE1B1E001C01D92D7
:10033000AF3AB207E1F713E0C4E0D3E004C022977C
:10034000FE010E94E512C230D107C9F70E94FB0FDF
:100350000C94F8120C94000081E291E00E94D10A02
:10036000109239010895FF920F931F93CF93DF935B
:10037000FC014491409320013196E491E0931F01E8
:10038000EC012296552747FD50959A01295F3F4F72
:1003900037FF02C0295F3F4F83E0359527958A9547
:1003A000E1F720931C0110921D0100E810E099E094
:1003B000F92E90911D0180911F0198170CF051C0EA
:1003C00010921E0180911E019091200140911D010B
:1003D00089170CF042C0E0911C014E02F00111247B
:1003E000982F87FF02C097E0980F95959595959562
:1003F000E90FF11D97FDFA95EC0FFD1FE491F0E078
:10040000282F277827FF03C02150286F2F5FB801BE
:1004100002C0759567952A95E2F79B012E233F232D
:10042000232BA9F06F2D0E946112E82FEE0FFF0B16
:10043000E65FFE4F20813181440F440F440F692F46
:10044000660F660F660F8FE691E00E947906809135
:100450001E018F5F80931E01B5CF4F5F40931D013A
:10046000A8CFDF91CF911F910F91FF90089581E266
:1004700091E00E949E09882321F088E690E00C9488
:10048000B3010895109272011092710188E191E018
:100490009093700180936F010895CF93CFB7F89434
:1004A0008091A701811127C0EAEDF2E08491E6EC8A
:1004B000F2E09491E82FF0E0EE0FFF1FE850FD4FBF
:1004C000A591B4918C91892321F461E08AE00E9486
:1004D0009B0F61E08AE00E94620F8CB580618CBD49
:1004E0008CB580648CBD61E08DE00E94620F61E09C
:1004F0008BE00E94620F8091A7018F5F8093A7011C
:10050000CFBFCF91089521E0FC012083089570E0D2
:1005100085E00C94DA0EAF92BF92CF92DF92EF9209
:10052000FF920F931F93CF93DF93EC0189819A8100
:100530002FE0289F8001299F100D112485E10E9442
:10054000BD0E800F911F24E0969587952A95E1F7BF
:100550009A8389832881222391F1AC81AD80B12CCB
:10056000C12CD12CE885F9857F0100E010E06E8177
:100570007F819B0140E050E08617970728F0BC017F
:10058000E817F90708F4BF0180E090E01F921F927E
:100590001F92AF930E94E0106B830F900F900F900B
:1005A0000F9070E085E0DF91CF911F910F91FF9048
:1005B000EF90DF90CF90BF90AF900C94DA0EDF9168
:1005C000CF911F910F91FF90EF90DF90CF90BF9050
:1005D000AF900895FC018CE39FE09383828384E0D5
:1005E000818381E084870895CF93DF93EC018C852C
:1005F0008F7151F584E10E94BD0EBC01882777FD03
:100600008095982F0E94561126EE3FE34EEC50E461
:100610000E94E2110E9428119B017B836A8361156D
:10062000710581F084E08983FE0140E08481958139
:100630002817390710F449830AC04F5F32964430B7
:10064000A9F702C08FEF89838C858F5F8C87DF913C
:10065000CF910895FC0188E0808389E0818387E061
:10066000828386E0838384E0848382E0858381E1E2
:1006700086830895DF92EF92FF920F931F93CF939B
:10068000DF937C01EC0100E010E0DD24DA9462E00D
:1006900088810E94620F88810E94D10FF701E00FCC
:1006A000F11F892B21F487818F5F878308C08781A1
:1006B000882349F08F3F11F4178201C0D78260E090
:1006C00088810E94620F0F5F1F4F2196073011052E
:1006D000F1F6DF91CF911F910F91FF90EF90DF9096
:1006E0000895FC01E60FF11D81E09781913009F03A
:1006F00080E008958EBD00000DB407FEFDCF8EB5DD
:100700000895643508F047C0403308F044C0FC0148
:10071000878D242F259525952595E62FFF27E7FD25
:10072000F0954770823091F4DF01A855BE4F84E503
:100730002802A00DB11D11248C9190E0042E02C05E
:10074000959587950A94E2F780958170811112C082
:1007500084E52802E00DF11D1124E855FE4F81E0EB
:1007600090E0042E01C0880F0A94EAF780959081EA
:10077000982310C084E52802E00DF11D1124E855EE
:10078000FE4F81E090E0042E01C0880F0A94EAF742
:100790009081982B908308951F93CF93DF93EC0162
:1007A000162FF89460E08E850E949B0F8F85181697
:1007B0001CF460E00E949B0F812F0E947A038F85BA
:1007C00018161CF461E00E949B0F7894DF91CF9182
:1007D0001F91089528EF31E0E8EAF1E0DF01A90177
:1007E0001D9241505040E1F7DC0119961C92199777
:1007F0001A961C920895DF92EF92FF920F931F9327
:10080000CF93DF93EC0188EAE82E81E0F82ED12C1B
:100810006D2D6064CE010E94CC0360E8CE010E9481
:10082000CC0361E08E850E949B0F8F8518161CF407
:1008300060E00E949B0F00E010E0F701E00FF11F65
:1008400080810E947A030F5F1F4F04351105A9F7BD
:100850008F8518161CF461E00E949B0FD39484E5E9
:10086000E80EF11C86E0D812D3CF60E4CE01DF9110
:10087000CF911F910F91FF90EF90DF900C94CC03DC
:10088000FC01678F60A30895FC01678F40A3089562
:10089000AF92BF92CF92DF92EF92FF920F931F938E
:1008A000CF93DF93EC01162FF42EE22EA02FBB275F
:1008B000A7FDB095A41BB10947FDB395B7FF03C0D1
:1008C000B195A195B109EE2DFF27E7FDF095E11B4C
:1008D000F10917FDF395F7FF03C0F195E195F109D3
:1008E000BB24B394EA17FB0714F0B12C06C08E2D7D
:1008F000E02E082F812F1F2DF82EE11634F48F2DB6
:10090000F02E082F812F1E2DE82ECE2CC11AE02F9D
:10091000FF27E7FDF095EF19F109F7FCF395F7FFD5
:1009200003C0F195E195F109AE2EDC2CC7FE03C0A2
:10093000DD24D394DC0CD594F01614F401E00FC040
:100940000FEF0DC0BB2071F0412F6F2DCE010E9423
:100950008103DA18D7FE02C0F00EDC0C1F5FE1162F
:100960008CF703C04F2D612FF1CFDF91CF911F91F5
:100970000F91FF90EF90DF90CF90BF90AF900895D0
:100980000F93022F0150040F262F0E9448040F914D
:100990000895DF92EF92FF920F931F93CF93DF930F
:1009A0007C01D42E162FC22FDD27C7FDD095C60F90
:1009B000D11D67FDDA95812F992787FD90958C17BA
:1009C0009D0744F4202F4D2D612FC7010E94C004C4
:1009D0001F5FF1CFDF91CF911F910F91FF90EF90AB
:1009E000DF9008950F932150260F042F0E94480492
:1009F0000F9108958F929F92AF92BF92CF92DF9204
:100A0000EF92FF920F931F93CF93DF93EC01E62EAB
:100A1000D42E122FCC24C394C21AB22EB194BB0C84
:100A2000F12C802F8470A82E802F8270982E802F1A
:100A30008870882E0170F1160CF04DC0C7FC04C000
:100A40001150B394B394CB0CF3948F2D880F8F5F18
:100A5000C80EAA2071F0412F4D0D6F2D6E0DCE01E5
:100A60000E9481034F2D4D0D612F6E0DCE010E940E
:100A70008103992071F04D2D411B6F2D6E0DCE011C
:100A80000E9481034D2D4F19612F6E0DCE010E94E2
:100A90008103882071F04F2D4D0D6E2D611BCE010D
:100AA0000E948103412F4D0D6E2D6F19CE010E94C2
:100AB0008103002309F4BFCF4D2D4F196E2D611B0B
:100AC000CE010E9481034D2D411B6E2D6F19CE0169
:100AD0000E948103B0CFDF91CF911F910F91FF90C2
:100AE000EF90DF90CF90BF90AF909F908F90089540
:100AF0008F929F92AF92BF92CF92DF92EF92FF922E
:100B00000F931F93CF93DF93EC01B62EA42E122FD9
:100B1000DD24D394D21AC22EC194CC0CFF24F394BA
:100B2000802F8170882E992493949E0C02708FEFF1
:100B30008F0D8117C4F5D7FC04C01150C394C39422
:100B4000DC0C8F2D880F8F5FD80E882099F0212F15
:100B5000220F290D4A2D411B6F2D6B0DCE010E94D6
:100B6000C00423E02E0D4A2D4F19612F6B0DCE01CD
:100B70000E94C004002399F0212F220F290D4A2D35
:100B8000411B6B2D6F19CE010E94C00423E02E0D76
:100B90004A2D4F196B2D611BCE010E94C004F394A6
:100BA000E394E394C4CFDF91CF911F910F91FF9015
:100BB000EF90DF90CF90BF90AF909F908F9008956F
:100BC0009F92AF92BF92CF92DF92EF92FF920F93DC
:100BD0001F93CF93DF93EC01B62EF42EA22EDE2CC2
:100BE000D194DD0C9D2C920E1E2D160F292D612FF8
:100BF0000E94F204CC24CA94C00ECF0C292D4C2D97
:100C0000612FCE010E94F204D00EFE0C2D2D4F2D2F
:100C10006B2DCE010E94C004BA0C6FEF6B0D2D2D11
:100C20004F2DCE010E94C00401E02E2D4F2D612FCB
:100C3000CE010E94FA04DE2CD094DB0C02E02E2DB3
:100C40004F2D6D2DCE010E94FA04CE1804E02E2DFA
:100C50004C2D6D2DCE010E94FA0408E02E2D4C2D56
:100C6000612FCE010E94FA04DF91CF911F910F9165
:100C7000FF90EF90DF90CF90BF90AF909F9008953E
:100C8000AF92BF92CF92DF92EF92FF920F931F939A
:100C9000CF93DF93EC01A62EC42EB22EF02E1E2D84
:100CA000E194EE0CD12ED60E2E2D2B0D6D2D0E9423
:100CB000C904FA94FE0CC10E6FEF6A0D6B0D611B37
:100CC000EF2C01E0212F4C2DCE010E94780502E08F
:100CD000212F4C2D6D2DCE010E947805DF91CF91F3
:100CE0001F910F91FF90EF90DF90CF90BF90AF904A
:100CF00008952F923F924F925F926F927F928F92C0
:100D00009F92AF92BF92CF92DF92EF92FF920F939A
:100D10001F93CF93DF931F92CDB7DEB78C01862E42
:100D2000942EF9017490319664907901F2E0EF0EFF
:100D3000F11C872D992787FD9095DC011796B7FD4B
:100D400017966D0193E0D594C7949A95E1F7212CFD
:100D5000312C512C20E8A22EB12C5614B4F520E0F1
:100D6000452C490C27156CF5822F27FF02C087E020
:100D7000820F859585958595F101E80FF11D87FD19
:100D8000FA95EE0DFF1DE491F0E0A22FA778A7FFE2
:100D900003C0A150A86FAF5FC50102C095958795AC
:100DA000AA95E2F7DC01AE23BF23AB2B41F0442D23
:100DB000622F680DC80129830E94810329812F5F5A
:100DC000D1CF53942C0C3D1CC8CF0F90DF91CF9105
:100DD0001F910F91FF90EF90DF90CF90BF90AF9059
:100DE0009F908F907F906F905F904F903F902F904B
:100DF0000895DC01FB0184918F5F14968C93149706
:100E00003196E491EF5F1596EC9315976E5F7F4FE7
:100E10005E967C936E935D970895EF920F93CF93B8
:100E2000DF93EC014D876C872E87E88A0F8781E07E
:100E300088878F8F18A28F8360EB70E0CE010E94AD
:100E4000F9060E944D028CB58F7D8CBD8CB58C7FD0
:100E500081608CBD8DB581608DBD8CB58C608CBD85
:100E600061E08D850E94620F61E08C850E94620FB7
:100E700061E08E850E94620F888918161CF461E07B
:100E80000E94620F8F8518161CF461E00E94620FA9
:100E9000888918166CF460E00E949B0F6AE070E08D
:100EA00080E090E00E945A0E61E088890E949B0FCA
:100EB0008C85992787FD9095FC01E053FD4FE491C7
:100EC000F0E0EE0FFF1FE251FD4F259134913C8B76
:100ED0002B8BFC01E454FD4F84918A8F8D859927DB
:100EE00087FD9095FC01E053FD4FE491F0E0EE0F9B
:100EF000FF1FE251FD4F259134913A8B298BFC0164
:100F0000E454FD4F8491898F8F85992787FD9095B3
:100F1000FC01E053FD4FE491F0E0EE0FFF1FE251C2
:100F2000FD4F259134913E8B2D8BFC01E454FD4FF8
:100F300084918B8F8E85992787FD9095FC01E053D6
:100F4000FD4FE491F0E0EE0FFF1FE251FD4F2591C0
:100F50003491388F2F8BFC01E454FD4F84918C8F9A
:100F600061E2CE010E94CC0364E1CE010E94CC0379
:100F70008B8587FF02C08FE78B876B856068CE010A
:100F80000E94CC0360E2CE010E94CC036CE0CE0153
:100F90000E94CC03CE01DF91CF910F91EF900C9482
:100FA000FB036F927F928F929F92AF92BF92CF92EC
:100FB000DF92EF92FF920F931F93CF93DF93EC0199
:100FC000162FF42EB02EEF8C64350CF081C08FE21A
:100FD00084170CF47DC0EC81F0E031970E9FC001C6
:100FE0000F9F900D1124860F911D67FD9A9518167D
:100FF00019060CF06DC08D81809FC0011124840FF3
:10100000911D47FD9A95181619060CF061C0A62E81
:10101000962EC22ED12C8A2D811B992787FD909563
:101020002C8130E0821793070CF051C02150310918
:101030008217930779F0C29ED001C39EB00DD29E55
:10104000B00D1124A80FB91FED8DFE8DEA0FFB1F07
:10105000749001C0712C8F2C6F2C282D2F193327E1
:1010600027FD30958D8190E0281739076CF570FECB
:1010700011C081E0B81206C0482D6A2DCE010E9431
:1010800081031EC00B2D2B2D462D692DCE010E94F4
:10109000C90416C088A19F8D891791F08F8F81E0B8
:1010A000B81206C0482D6A2DCE010E94810307C0E8
:1010B0000B2D2B2D462D692DCE010E94C904EF8EDC
:1010C00076946B0C8394C9CF9B0CA394A4CFEF8E22
:1010D000DF91CF911F910F91FF90EF90DF90CF9014
:1010E000BF90AF909F908F907F906F9008950F93D7
:1010F000CF93DF93EC01262F6A3039F42D81988548
:101100008A85299F800D112422C06D3011F1088538
:101110004A8569850E94D10748855C812985549F4D
:10112000200D112429878F81882399F0332727FDEB
:10113000309584E590E0459F80199109112482172C
:1011400093073CF49D818A85499F800D11248A87ED
:10115000198681E090E0DF91CF910F9108958F92F1
:101160009F92AF92BF92CF92DF92EF92FF920F9336
:101170001F93CF93DF93EC015C0185E8A80EB11CAF
:10118000D5018C91882309F44DC08C3018F41CE0F3
:10119000181B01C010E0FE01EA5AFF4F81E0808376
:1011A0006E01BEE4CB0ED11C60E0C6010E9440047B
:1011B0004E01E3E58E0E911CD4018C9103E0080FE3
:1011C0009DE2F92E4F2D481B410F23E0E22E24E52E
:1011D00060E0C6010E94400661E0C6010E94400432
:1011E000F401808103E0080F4F2D481B410F24E5D7
:1011F00060E0C6010E94E005FE01E95AFF4F84E06D
:1012000080833196D4018C91181B115D1083CD57CA
:10121000DF4F68817981C6010E944810F501808105
:1012200081508083DF91CF911F910F91FF90EF90BC
:10123000DF90CF90BF90AF909F908F9008950F93C5
:101240001F93CF93DF93EC018C01025B1F4F40E0B3
:1012500061E0C8010E944404FE01E95AFF4FDE012B
:10126000AE5ABF4F85E59C91891B808331961082D1
:10127000698D613009F43CC028F0888D653008F034
:101280004EC049C0CE0185960E94560C60E0CE014A
:101290000E948702C8010E94EA03FE01EA5AFF4F3A
:1012A00081E0808366E472E0C8010E9448106A8D84
:1012B0007B8D4AE050E0C8010E94DA1062E372E0E0
:1012C000C8010E944810C8010E94FB0383B7817FB8
:1012D000846083BF83B7816083BF83B7816083BF2E
:1012E000889583B78E7F83BF83B78E7F83BF21C0EE
:1012F000C059DF4F488159816A817B814F705527E2
:1013000066277727483051056105710510F467E0BD
:1013100009C068E707C0882361F06B5F03C08823BA
:1013200041F06FE2C801DF91CF911F910F910C94B2
:101330006D10DF91CF911F910F9108958F929F9221
:10134000AF92BF92EF92FF920F931F93CF93DF93D1
:10135000EC017C010FE7E00EF11CF7018080918029
:10136000A280B3800E942B0E95018401061B170BEF
:10137000280B390BB901A8015E011EE7A10EB11CB3
:10138000F501808190E0A0E0B0E08E0106581F4F8B
:1013900084179507A607B70750F4F801808191815B
:1013A000A281B381892B8A2B8B2B09F040C0F801D5
:1013B00080819181A281B381892B8A2B8B2BA9F506
:1013C0007E01F5E2EF0EF11CC7010E94530CC7012C
:1013D0000E94C00CC7010E94840DCE010E94AF087C
:1013E000CE010E941F097E012EE4E20EF11CC7010E
:1013F0000E94FB03FE01EC5AFF4F8081811103C064
:10140000C7010E94EA030E94370EF80160837183CE
:1014100082839383FE01EC58FF4FCA58DF4F288127
:101420003981621B730B7183608380E036C00E9438
:101430002B0EF5012081620F711D811D911DF70199
:101440006083718382839383FE01E059FF4F408163
:101450005181628173814F5F5F4F6F4F7F4F408338
:10146000518362837383F801108211821282138286
:101470000E94370EFE01EA58FF4F6083718382831A
:101480009383CE010E948B02CE010A960E943A03FA
:10149000CE0148960E94F40281E0DF91CF911F9126
:1014A0000F91FF90EF90BF90AF909F908F90089515
:1014B000E0E8F7E72591349181E02130304C09F0E4
:1014C00080E00895CF93DF93EC010E94580A9E01BB
:1014D000275A3F4FDE01A159BF4F882309F43CC072
:1014E000E6E9F7E78491F9018083E7E9F7E7E4911A
:1014F000EC83E8E9F7E7E491ED83E9E9F7E7859123
:1015000094919F838E83EBE9F7E785919491998776
:101510008887EDE9F7E7E491EBA7EEE9F7E7E491D7
:10152000EAA7EFE9F7E7E491EC93E0EAF7E78591C2
:1015300094919D8F8C8FE2EAF7E7859194919F8F2C
:101540008E8FE4EAF7E78591949199A388A3E6EA60
:10155000F7E78591949120C08CE3F90180831C8288
:101560002FEF2D8380E293E09F838E8384ED93E0C1
:101570009987888781E08BA78AA72C938CEA9DE0C6
:101580009D8F8C8F8EED9DE09F8F8E8F84E79EE0E8
:1015900099A388A38CE39FE09BA38AA3DF91CF91BB
:1015A0000895CF92DF92EF920F93CF93DF93EC01E8
:1015B000FC01E258FF4F82E38083349741E050E022
:1015C00060E070E040835183628373833B978FEFC9
:1015D0008083CE010E94620ACE010E9483026FEFD7
:1015E000CE010E9487026E018AE0C80ED11CC6019E
:1015F0000E942A03C6010E943A03CE0148960E9427
:10160000EA020EE0E02E0FE020E14BE06DE0CE01BB
:10161000825B9F4F0E940D07A596CE010E94690B29
:1016200065E0C6010E947103882351F060E0CE019D
:10163000DF91CF910F91EF90DF90CF900C94D40D6C
:1016400040E063E572E0CE01DF91CF910F91EF9022
:10165000DF90CF900C94080CCF93DF9350E0FA0109
:10166000EE0FFF1FE80FF91F37852089E32FF22FB8
:10167000E60FF11DE60FF11D25913491FA01EE0FF1
:10168000FF1FE80FF91F30A3278FF90165917491AF
:10169000FC01D481D69FC02D1124E40FF51FC1A3F6
:1016A000F901A591B4916B2F70E0EC2FF0E0DC0113
:1016B000A40FB51F6E177F0720F4F901259134910F
:1016C000C32FCD9FC02D11249296CC93DF91CF9143
:1016D000089521E0FC01248324E020A72CE932E0D6
:1016E000308B278740E060E00E942C0B61E070E0C7
:1016F00083E00E94DA0EE1EBF0E08081887F816078
:101700008083F89410928000E1E8F0E0108210925B
:1017100085001092840088E191E090938900809385
:101720008800808188608083808181608083EFE68B
:10173000F0E0808182608083789408950F93FC01AB
:10174000862F642F011129C08230D1F048F48823FC
:1017500091F0813011F540E0CF010F910C942C0BEA
:101760008330A9F08430C9F48481489F602D11240E
:10177000658F268F12C04B3008F06AE0668B0DC073
:101780008481489F602D1124618F228F06C084813F
:10179000489F602D1124638F248F0F910895FC01C1
:1017A00021110EC0648B8481489F402D1124458BEC
:1017B00015A214A213A281E0878B8093A403108E3C
:1017C00008958091A403882319F08091A10301C09A
:1017D00080E08093B4000895FC0161110DC0178A68
:1017E000158A14A213A2108E1092A1031092A203C4
:1017F0001092A4030C94E10B0895CF93DF93EC01B6
:10180000611103C00E94EC0B1982DF91CF91089502
:101810000F931F93CF93DF93EC018B0141110EC007
:1018200060E00E94FD0B1E870D871B8A1A8A81E0EB
:10183000898389E08E8B198E1B8E1D8EDF91CF914F
:101840001F910F910895CF93DF93EC01611128C090
:101850008881882329F18981811122C089852F817E
:101860009885E22FF92FE80FF11DE80FF11D859102
:1018700094918F3F2FEF920711F4188211C09C872B
:101880009927880F991FEA85FB85E80FF91F659155
:10189000749140E0CE010E94080C89858F5F898792
:1018A000DF91CF91089560E00C94230C60E00C94DC
:1018B000FD0B0F93CF93DF93EC0161115DC0898124
:1018C000882309F459C08D89811156C02D853E8524
:1018D0008A899B89880F991F820F931FFC0185912C
:1018E00094910097D1F48989882321F01B8A1A8A60
:1018F000F90111C01982888160E0882331F0CE019E
:101900000E94230C8A899B8925C0CE01DF91CF914B
:101910000F910C94EC0B85919491BC017695679591
:101920007695679580FF1DC0AC01A6E0569547955A
:10193000AA95E1F7292F26952695269520514F71D6
:101940006F7000E0CE010E949E0B8A899B890196F0
:101950009B8B8A8B880F991FED85FE85E80FF91FF9
:10196000DACF492F6F7320E0CE010E94CF0B8A8916
:101970009B8901969B8B8A8BDF91CF910F91089564
:1019800060E00C94590CCF93DF93EC016111B9C066
:101990008F89882309F4B5C08D89811105C0CE01D6
:1019A000DF91CF910C94EC0B81508D8B8DA1811127
:1019B00038C08BA19CA101969C01220F331FEF8D93
:1019C000F8A1E20FF31F25913491422F47704EA3E7
:1019D000A90163E0569547956A95E1F7BA017695B6
:1019E0006795232F269526952FA36F732C81629FD1
:1019F000602D11246DA341704093A0039CA38BA381
:101A000029A130E08217930760F08AA1882329F08A
:101A1000281B31093CA32BA304C060E0CE010E9427
:101A2000EC0B8DA181508DA3288D2F5F288F4C89C1
:101A30003FA1340F8C85380F3A836B8D662361F09C
:101A400070E0822F992787FD90950E9483128C8DDC
:101A5000869F300D11243A838A8190E0CB966BE308
:101A600070E00E9483128A833E893B83698D6623DE
:101A700071F0772767FD7095822F992787FD9095E4
:101A80000E9483128A8D869F300D11243B836D8DB9
:101A9000662391F0822F992787FD909570E00E9430
:101AA0008312CB0162E070E00E9483122E8D9B8135
:101AB000289F900D11249B838B814F3339F08A30FE
:101AC0000CF089E087FD80E08B8301C01B82F894D5
:101AD000EA81F0E0EF59FD4FE491E093A30398A56C
:101AE0008D81989F802D11249B81899F802D1124A9
:101AF0009EA1899F802D11248093A2038093A1032E
:101B00007894DF91CF91089560E00C94C30C6091BC
:101B1000A203662321F18091A5038F5F8093A50323
:101B20009091A3038917D8F08091A40391E08927AD
:101B30008093A4031092A5038091A003882369F0E9
:101B40009091120183E4989F802D1124895B8093EA
:101B500012010E9455129093A1030C94E10B089579
:101B60001F920F920FB60F9211242F933F934F9312
:101B70005F936F937F938F939F93AF93BF93EF93F5
:101B8000FF930E94870DFF91EF91BF91AF919F91BD
:101B90008F917F916F915F914F913F912F910F9016
:101BA0000FBE0F901F901895FC01862F992787FD77
:101BB0009095668170E06F5F7F4F0E9483128583EE
:101BC00008951F920F920FB60F9211242F933F93F7
:101BD0008F939F93AF93BF938091A7039091A80396
:101BE000A091A903B091AA033091A60323E0230F8B
:101BF0002D3720F40196A11DB11D05C026E8230F45
:101C00000296A11DB11D2093A6038093A703909374
:101C1000A803A093A903B093AA038091AB0390916A
:101C2000AC03A091AD03B091AE030196A11DB11D0F
:101C30008093AB039093AC03A093AD03B093AE033A
:101C4000BF91AF919F918F913F912F910F900FBEB8
:101C50000F901F9018952FB7F8946091A70370917B
:101C6000A8038091A9039091AA032FBF08953FB7BD
:101C7000F8948091AB039091AC03A091AD03B09127
:101C8000AE0326B5A89B05C02F3F19F00196A11DF4
:101C9000B11D3FBF6627782F892F9A2F620F711DC4
:101CA000811D911D42E0660F771F881F991F4A957D
:101CB000D1F70895CF92DF92EF92FF92CF93DF9307
:101CC0006B017C010E94370EEB01C114D104E104C9
:101CD000F10489F00E9427110E94370E6C1B7D0BC6
:101CE000683E734090F381E0C81AD108E108F1081A
:101CF000C851DC4FEACFDF91CF91FF90EF90DF909A
:101D0000CF900895789484B5826084BD84B5816055
:101D100084BD85B5826085BD85B5816085BDEEE6F3
:101D2000F0E0808181608083E1E8F0E010828081D2
:101D300082608083808181608083E0E8F0E0808140
:101D400081608083E1EBF0E0808184608083E0EB60
:101D5000F0E0808181608083EAE7F0E08081846048
:101D600080838081826080838081816080838081A4
:101D7000806880831092C10008958E3008F08E50E4
:101D800087702091130190E4299F90011124822BE8
:101D900080937C0080917A00806480937A008091A7
:101DA0007A0086FDFCCF809178002091790090E048
:101DB000922B08951F93CF93DF93182FEB0161E0CF
:101DC0000E94620F209711F460E004C0CF3FD1055C
:101DD00039F461E0812FDF91CF911F910C949B0F1B
:101DE000E12FF0E0E855FD4FE491E330F9F048F4DD
:101DF000E130B9F0E230A1F584B5806284BDC8BDA0
:101E000034C0E730E9F0E83019F1E43049F5809169
:101E10008000806280938000D0938B00C0938A0002
:101E200024C084B5806884BDC7BD1FC08091800078
:101E3000806880938000D0938900C093880015C08B
:101E40008091B00080688093B000C093B3000DC053
:101E50008091B00080628093B000C093B40005C050
:101E6000C038D1050CF0B5CFAFCFDF91CF911F9126
:101E70000895833081F028F4813099F08230A1F008
:101E800008958730A9F08830B9F08430D1F480917A
:101E900080008F7D03C0809180008F7780938000C9
:101EA000089584B58F7702C084B58F7D84BD089571
:101EB0008091B0008F7703C08091B0008F7D8093B8
:101EC000B0000895CF93DF9390E0FC01E454FD4F00
:101ED0002491FC01E053FD4F8491882349F190E067
:101EE000880F991FFC01E850FD4FA591B4918251D4
:101EF0009D4FFC01C591D4919FB7611108C0F89422
:101F00008C91209582238C93888182230AC0623031
:101F100051F4F8948C91322F309583238C938881DF
:101F2000822B888304C0F8948C91822B8C939FBF62
:101F3000DF91CF9108950F931F93CF93DF931F925B
:101F4000CDB7DEB7282F30E0F901E855FD4F849179
:101F5000F901E454FD4F1491F901E053FD4F049150
:101F60000023C9F0882321F069830E94390F698119
:101F7000E02FF0E0EE0FFF1FE251FD4FA591B4916D
:101F80009FB7F8948C91611103C01095812301C013
:101F9000812B8C939FBF0F90DF91CF911F910F9159
:101FA0000895CF93DF93282F30E0F901E855FD4FD6
:101FB0008491F901E454FD4FD491F901E053FD4FB0
:101FC000C491CC2391F081110E94390FEC2FF0E0E5
:101FD000EE0FFF1FEC51FD4FA591B4912C912D23D5
:101FE00081E090E021F480E002C080E090E0DF91A9
:101FF000CF91089508950E94820E0E94FA0F0E94C8
:10200000AC01C0E0D0E00E9437022097E1F30E94CB
:102010000000F9CFCF92DF92EF92FF920F931F93C0
:10202000CF93DF936C017A01EB01E60EF71E00E01F
:1020300010E0CE15DF0561F06991D601ED91FC91BC
:102040000190F081E02DC6010995080F191FF1CF0D
:10205000C801DF91CF911F910F91FF90EF90DF901A
:10206000CF9008956115710581F0DB010D9000207E
:10207000E9F7AD0141505109461B570BDC01ED91C9
:10208000FC910280F381E02D099480E090E00895B6
:10209000EF92FF920F931F93CF93DF938C01FB017D
:1020A000C0E0D0E064917F018FEFE81AF80A662360
:1020B00061F0D801ED91FC910190F081E02DC80113
:1020C0000995C80FD91FF701EDCFCE01DF91CF9150
:1020D0001F910F91FF90EF900895DC01ED91FC911D
:1020E0000190F081E02D09948F929F92AF92BF9260
:1020F000CF92DF92EF92FF920F931F93CF93DF93D4
:10210000CDB7DEB7A1970FB6F894DEBF0FBECDBF37
:102110007C01C42EE52FCB01D22E19A221E02D1572
:1021200010F02AE0D22E8E010F5D1F4F8D2C912CC6
:10213000A12CB12C6C2D7E2FA50194010E94971229
:102140008C2DD29E80191124015011098A3014F46B
:10215000805D01C0895CF80180832115310541054E
:10216000510521F0C22EE32FCA01E4CFB801C70107
:102170000E943210A1960FB6F894DEBF0FBECDBFFD
:10218000DF91CF911F910F91FF90EF90DF90CF9053
:10219000BF90AF909F908F9008952115310541F425
:1021A000DC01ED91FC910190F081E02D642F099408
:1021B0000C9474109A01AB0160E070E00C94CD10A7
:1021C0004F925F926F927F92AF92BF92CF92DF92C7
:1021D000EF92FF920F931F93CF93DF93CDB7DEB7AC
:1021E00029013A01621B730B840B950B29893A89EB
:1021F0004B895C892A193B094C095D09298B3A8B6B
:102200004B8B5C8B9B01AC0169897A898B899C899A
:102210000E944512E418F50806091709A80197015C
:102220000E94B9122A0D3B1D4C1D5D1DCA01B9014A
:10223000DF91CF911F910F91FF90EF90DF90CF90A2
:10224000BF90AF907F906F905F904F9008950895EA
:1022500098D088F09F5790F0B92F9927B751A0F0E8
:10226000D1F0660F771F881F991F1AF0BA95C9F72A
:1022700012C0B13081F09FD0B1E008959CC0672FAB
:10228000782F8827B85F39F0B93FCCF386957795DA
:102290006795B395D9F73EF49095809570956195C3
:1022A0007F4F8F4F9F4F0895E89409C097FB3EF4EE
:1022B00090958095709561957F4F8F4F9F4F992393
:1022C000A9F0F92F96E9BB279395F6958795779511
:1022D0006795B795F111F8CFFAF4BB0F11F460FFD1
:1022E0001BC06F5F7F4F8F4F9F4F16C0882311F029
:1022F00096E911C0772321F09EE8872F762F05C03D
:10230000662371F096E8862F70E060E02AF09A95D7
:10231000660F771F881FDAF7880F9695879597F9CC
:10232000089597F99F6780E870E060E008959FEF57
:1023300080EC089500240A9416161706180609065C
:10234000089500240A94121613061406050608952B
:10235000092E0394000C11F4882352F0BB0F40F4B3
:10236000BF2B11F460FF04C06F5F7F4F8F4F9F4FF3
:10237000089557FD9058440F551F59F05F3F71F075
:102380004795880F97FB991F61F09F3F79F08795DC
:102390000895121613061406551FF2CF4695F1DF65
:1023A00008C0161617061806991FF1CF86957105F5
:1023B000610508940895E894BB2766277727CB0129
:1023C00097F908950BD0C4CFB5DF28F0BADF18F025
:1023D000952309F0A6CFABCF1124EECFCADFA0F32F
:1023E000959FD1F3950F50E0551F629FF001729FAA
:1023F000BB27F00DB11D639FAA27F00DB11DAA1FC9
:10240000649F6627B00DA11D661F829F2227B00D15
:10241000A11D621F739FB00DA11D621F839FA00DA0
:10242000611D221F749F3327A00D611D231F849FF0
:10243000600D211D822F762F6A2F11249F57504047
:102440008AF0E1F088234AF0EE0FFF1FBB1F661FE2
:10245000771F881F91505040A9F79E3F510570F09B
:1024600060CFAACF5F3FECF3983EDCF3869577957B
:102470006795B795F795E7959F5FC1F7FE2B880F96
:10248000911D9695879597F90895DB018F939F93FA
:102490000E94D812BF91AF91A29F800D911DA39F62
:1024A000900DB29F900D11240895991B79E004C0FE
:1024B000991F961708F0961B881F7A95C9F7809583
:1024C000089587FB082E062687FD819567FD619597
:1024D0000E9455120EF4919507FC81950895AA1B50
:1024E000BB1B51E107C0AA1FBB1FA617B70710F0FF
:1024F000A61BB70B881F991F5A95A9F78095909531
:10250000BC01CD01089597FB072E16F4009407D067
:1025100077FD09D00E946F1207FC05D03EF490951C
:1025200081959F4F0895709561957F4F0895A1E221
:102530001A2EAA1BBB1BFD010DC0AA1FBB1FEE1F3D
:10254000FF1FA217B307E407F50720F0A21BB30B88
:10255000E40BF50B661F771F881F991F1A9469F704
:1025600060957095809590959B01AC01BD01CF0160
:102570000895052E97FB1EF400940E94D01257FD7B
:1025800007D00E94971207FC03D04EF40C94D0128F
:1025900050954095309521953F4F4F4F5F4F08958F
:1025A00090958095709561957F4F8F4F9F4F0895BF
:1025B0000E94E912A59F900DB49F900DA49F800DDD
:1025C000911D11240895EE0FFF1F0590F491E02D49
:1025D0000994A29FB001B39FC001A39F700D811DFC
:1025E0001124911DB29F700D811D1124911D08951C
:0425F000F894FFCF8D
:1025F4000000AF03800001000000A60092008800E4
:0C2604009C0001010000000077080A1093
:00000001FF
